:02000002B0004C
:1040000000400B0066870B00000006000C00050254
:084010000401B61400000000D9
:04401800A8830B006E
:1040200081F0004102E000BF83F0004330B54FEA69
:1040300041044FEA430594EA050F08BF90EA020FD6
:104040001FBF54EA000C55EA020C7FEA645C7FEA69
:10405000655C00F0E2804FEA5454D4EB5555B8BF8C
:104060006D420CDD2C4480EA020281EA030382EAFD
:10407000000083EA010180EA020281EA0303362D8F
:1040800088BF30BD11F0004F4FEA01314FF4801C62
:104090004CEA113102D0404261EB410113F0004F74
:1040A0004FEA03334CEA133302D0524263EB43032B
:1040B00094EA050F00F0A780A4F10104D5F1200EC9
:1040C0000DDB02FA0EFC22FA05F2801841F1000124
:1040D00003FA0EF2801843FA05F359410EE0A5F1F8
:1040E00020050EF1200E012A03FA0EFC28BF4CF029
:1040F000020C43FA05F3C01851EBE37101F00045DF
:1041000007D54FF0000EDCF1000C7EEB00006EEBEB
:104110000101B1F5801F1BD3B1F5001F0CD3490875
:104120005FEA30004FEA3C0C04F101044FEA4452CC
:1041300012F5800F80F09A80BCF1004F08BF5FEA53
:10414000500C50F1000041EB045141EA050130BD33
:104150005FEA4C0C404141EB0101013C28BFB1F545
:10416000801FE9D291F0000F04BF01460020B1FA90
:1041700081F308BF2033A3F10B03B3F120020CDA63
:104180000C3208DD02F1140CC2F10C0201FA0CF041
:1041900021FA02F10CE002F11402D8BFC2F1200CA6
:1041A00001FA02F120FA0CFCDCBF41EA0C0190405C
:1041B000E41AA2BF01EB0451294330BD6FEA0404A5
:1041C0001F3C1CDA0C340EDC04F11404C4F1200290
:1041D00020FA04F001FA02F340EA030021FA04F3A2
:1041E00045EA030130BDC4F10C04C4F1200220FAF9
:1041F00002F001FA04F340EA0300294630BD21FA37
:1042000004F0294630BD94F0000F83F4801306BFFC
:1042100081F480110134013D4EE77FEA645C18BFF0
:104220007FEA655C29D094EA050F08BF90EA020F87
:1042300005D054EA000C04BF1946104630BD91EA7F
:10424000030F1EBF0021002030BD5FEA545C05D182
:104250004000494128BF41F0004130BD14F58004C1
:104260003CBF01F5801130BD01F0004545F0FE4135
:1042700041F470014FF0000030BD7FEA645C1ABF6A
:10428000194610467FEA655C1CBF0B46024650EAA1
:10429000013406BF52EA033591EA030F41F40021CD
:1042A00030BD00BF90F0000F04BF0021704730B553
:1042B0004FF4806404F132044FF000054FF0000128
:1042C00050E700BF90F0000F04BF0021704730B5E9
:1042D0004FF4806404F1320410F0004548BF4042BE
:1042E0004FF000013EE700BF42004FEAE2014FEA13
:1042F00031014FEA02701FBF12F07F4393F07F4FEE
:1043000081F06051704732F07F4208BF704793F0F0
:104310007F4F04BF41F40021704730B54FF4607403
:1043200001F0004521F000411CE700BF50EA010206
:1043300008BF704730B54FF000050AE050EA0102AF
:1043400008BF704730B511F0004502D5404261EB1F
:1043500041014FF4806404F132045FEA915C3FF460
:10436000D8AE4FF003025FEADC0C18BF03325FEAFD
:10437000DC0C18BF033202EBDC02C2F1200300FAAE
:1043800003FC20FA02F001FA03FE40EA0E0021FAD3
:1043900002F11444BDE600BF70B54FF0FF0C4CF4C1
:1043A000E06C1CEA11541DBF1CEA135594EA0C0F73
:1043B00095EA0C0F00F0DEF82C4481EA030621EAAE
:1043C0004C5123EA4C5350EA013518BF52EA0335E9
:1043D00041F4801143F4801338D0A0FB02CE4FF09B
:1043E0000005E1FB02E506F00042E0FB03E54FF0CB
:1043F0000006E1FB03569CF0000F18BF4EF0010EC3
:10440000A4F1FF04B6F5007F64F5407404D25FEABE
:104410004E0E6D4146EB060642EAC62141EA555171
:104420004FEAC52040EA5E504FEACE2EB4F1FD0CB3
:1044300088BFBCF5E06F1ED8BEF1004F08BF5FEA31
:10444000500E50F1000041EB045170BD06F00046E3
:1044500046EA010140EA020081EA0301B4EB5C0490
:10446000C2BFD4EB0C0541EA045170BD41F4801188
:104470004FF0000E013C00F3AB8014F1360FDEBFAD
:10448000002001F0004170BDC4F10004203C35DA89
:104490000C341BDC04F11404C4F1200500FA05F30C
:1044A00020FA04F001FA05F240EA020001F00042AD
:1044B00021F0004110EBD37021FA04F642EB060123
:1044C0005EEA430E08BF20EAD37070BDC4F10C044D
:1044D000C4F1200500FA04F320FA05F001FA04F211
:1044E00040EA020001F0004110EBD37041F10001FD
:1044F0005EEA430E08BF20EAD37070BDC4F1200508
:1045000000FA05F24EEA020E20FA04F301FA05F26F
:1045100043EA020321FA04F001F0004121FA04F217
:1045200020EA020000EBD3705EEA430E08BF20EAE7
:10453000D37070BD94F0000F0FD101F00046400021
:1045400041EB010111F4801F08BF013CF7D041EAA3
:10455000060195F0000F18BF704703F000465200A7
:1045600043EB030313F4801F08BF013DF7D043EA78
:104570000603704794EA0C0F0CEA135518BF95EA2E
:104580000C0F0CD050EA410618BF52EA4306D1D1B5
:1045900081EA030101F000414FF0000070BD50EAD4
:1045A000410606BF1046194652EA430619D094EA5E
:1045B0000C0F02D150EA013613D195EA0C0F05D148
:1045C00052EA03361CBF104619460AD181EA03019C
:1045D00001F0004141F0FE4141F470014FF0000054
:1045E00070BD41F0FE4141F4780170BD70B54FF0EF
:1045F000FF0C4CF4E06C1CEA11541DBF1CEA13556F
:1046000094EA0C0F95EA0C0F00F0A7F8A4EB050450
:1046100081EA030E52EA03354FEA013100F0888047
:104620004FEA03334FF0805545EA131343EA126310
:104630004FEA022245EA111545EA10654FEA0026C5
:104640000EF000419D4208BF964244F1FD0404F57E
:10465000407402D25B084FEA3202B61A65EB0305DA
:104660005B084FEA32024FF480104FF4002CB6EB97
:10467000020E75EB030E22BFB61A754640EA0C0017
:104680005B084FEA3202B6EB020E75EB030E22BF57
:10469000B61A754640EA5C005B084FEA3202B6EB98
:1046A000020E75EB030E22BFB61A754640EA9C0057
:1046B0005B084FEA3202B6EB020E75EB030E22BF27
:1046C000B61A754640EADC0055EA060E18D04FEAE5
:1046D000051545EA16754FEA06164FEAC30343EA85
:1046E00052734FEAC2025FEA1C1CC0D111F4801F52
:1046F0000BD141EA00014FF000004FF0004CB6E74B
:1047000011F4801F04BF01430020B4F1FD0C88BFE9
:10471000BCF5E06F3FF6AFAEB5EB030C04BFB6EBF4
:10472000020C5FEA500C50F1000041EB045170BDE7
:104730000EF0004E4EEA113114EB5C04C2BFD4EB14
:104740000C0541EA045170BD41F480114FF0000E98
:10475000013C90E645EA060E8DE60CEA135594EA14
:104760000C0F08BF95EA0C0F3FF43BAF94EA0C0F17
:104770000AD150EA01347FF434AF95EA0C0F7FF48C
:1047800025AF104619462CE795EA0C0F06D152EAE0
:1047900003353FF4FDAE1046194622E750EA4106C4
:1047A00018BF52EA43067FF4C5AE50EA41047FF4D5
:1047B0000DAF52EA43057FF4EBAE12E74FF0FF3C3A
:1047C00006E000BF4FF0010C02E000BF4FF0010C0B
:1047D0004DF804CD4FEA410C7FEA6C5C4FEA430C84
:1047E00018BF7FEA6C5C1BD001B050EA410C0CBFD3
:1047F00052EA430C91EA030F02BF90EA020F002035
:10480000704710F1000F91EA030F58BF994208BF9B
:1048100090422CBFD8176FEAE37040F00100704758
:104820004FEA410C7FEA6C5C02D150EA013C07D1AF
:104830004FEA430C7FEA6C5CD6D152EA033CD3D0FA
:104840005DF8040B704700BF8446104662468C46F4
:104850001946634600E000BF01B5FFF7B7FF002827
:1048600048BF10F1000F01BD4DF808EDFFF7F4FF50
:104870000CBF012000205DF808FB00BF4DF808EDDB
:10488000FFF7EAFF34BF012000205DF808FB00BFFE
:104890004DF808EDFFF7E0FF94BF012000205DF820
:1048A00008FB00BF4DF808EDFFF7CEFF94BF0120D5
:1048B00000205DF808FB00BF4DF808EDFFF7C4FFCE
:1048C00034BF012000205DF808FB00BF4FEA410C17
:1048D0007FEA6C5C02D150EA013C0AD14FEA430CFA
:1048E0007FEA6C5C02D152EA033C02D14FF0000037
:1048F00070474FF0010070474FEA4102B2F1E043C8
:1049000024BFB3F5001CDCF1FE5C0DD901F0004CB6
:104910004FEAC0024CEA5070B2F1004F40EB830006
:1049200008BF20F00100704711F0804F21D113F132
:104930003872BCBF01F00040704741F480114FEA6B
:104940005252C2F11802C2F1200C10FA0CF320FAF4
:1049500002F018BF40F001004FEAC1234FEAD32311
:1049600003FA0CFC40EA0C0023FA02F34FEA43037B
:10497000CCE77FEA625307D150EA01331EBF4FF004
:10498000FE4040F44000704701F0004040F0FE401F
:1049900040F40000704700BF80F0004002E000BF1C
:1049A00081F0004142001FBF5FEA410392EA030F1A
:1049B0007FEA226C7FEA236C6AD04FEA1262D2EB64
:1049C0001363C1BFD218414048404140B8BF5B4269
:1049D000192B88BF704710F0004F40F4000020F002
:1049E0007F4018BF404211F0004F41F4000121F018
:1049F0007F4118BF494292EA030F3FD0A2F1010262
:104A000041FA03FC10EB0C00C3F1200301FA03F19F
:104A100000F0004302D5494260EB4000B0F5000FC2
:104A200013D3B0F1807F06D340084FEA310102F181
:104A30000102FE2A51D2B1F1004F40EBC25008BF33
:104A400020F0010040EA03007047490040EB0000FD
:104A5000013A28BFB0F5000FEDD2B0FA80FCACF1FE
:104A6000080CB2EB0C0200FA0CF0AABF00EBC2502B
:104A700052421843BCBFD0401843704792F0000F19
:104A800081F4000106BF80F400000132013BB5E76C
:104A90004FEA41037FEA226C18BF7FEA236C21D0E2
:104AA00092EA030F04D092F0000F08BF0846704747
:104AB00090EA010F1CBF0020704712F07F4F04D115
:104AC000400028BF40F00040704712F100723CBF28
:104AD00000F50000704700F0004343F0FE4040F452
:104AE000000070477FEA226216BF08467FEA236310
:104AF0000146420206BF5FEA412390EA010F40F4FB
:104B0000800070474FF0000304E000BF10F0004346
:104B100048BF40425FEA000C08BF704743F096432D
:104B200001464FF000001CE050EA010208BF704748
:104B30004FF000030AE000BF50EA010208BF7047CF
:104B400011F0004302D5404261EB41015FEA010CE4
:104B500002BF84460146002043F0B64308BFA3F1DC
:104B60008053A3F50003BCFA8CF2083AA3EBC253BE
:104B700010DB01FA02FC634400FA02FCC2F12002DD
:104B8000BCF1004F20FA02F243EB020008BF20F014
:104B90000100704702F1200201FA02FCC2F120027A
:104BA00050EA4C0021FA02F243EB020008BF20EA6F
:104BB000DC7070477BB972B90029BEBF00204FF08E
:104BC000004106E008BF00281CBF6FF000414FF015
:104BD000FF3000F0A7B9ADF1080C6DE904CE002953
:104BE00009DB002B1ADB00F035F8DDF804E0DDE925
:104BF000022304B07047404261EB4101002B1BDBF4
:104C000000F028F8DDF804E0DDE9022304B04042BA
:104C100061EB4101524263EB43037047524263EB45
:104C2000430300F017F8DDF804E0DDE9022304B0E7
:104C3000404261EB41017047524263EB430300F095
:104C400009F8DDF804E0DDE9022304B0524263EB29
:104C5000430370472DE9F047089D04468E46002B1C
:104C60004DD18A42944669D9B2FA82F252B101FA20
:104C700002F3C2F1200120FA01F10CFA02FC41EA30
:104C8000030E94404FEA1C48210CBEFBF8F61FFAB5
:104C90008CF708FB16E341EA034306FB07F1994250
:104CA0000AD91CEB030306F1FF3080F01F81994203
:104CB00040F21C81023E63445B1AA4B2B3FBF8F0DD
:104CC00008FB103344EA034400FB07F7A7420AD964
:104CD0001CEB040400F1FF3380F00A81A74240F28C
:104CE00007816444023840EA0640E41B00261DB1F7
:104CF000D4400023C5E900433146BDE8F0878B422C
:104D000009D9002D00F0EF800026C5E900013046EA
:104D10003146BDE8F087B3FA83F6002E4AD18B42C4
:104D200002D3824200F2F980841A61EB030301206E
:104D30009E46002DE0D0C5E9004EDDE702B9FFDE5A
:104D4000B2FA82F2002A40F09280A1EB0C014FEA05
:104D50001C471FFA8CFE0126200CB1FBF7F307FB62
:104D6000131140EA01410EFB03F0884208D91CEB05
:104D7000010103F1FF3802D2884200F2CB804346A2
:104D8000091AA4B2B1FBF7F007FB101144EA014481
:104D90000EFB00FEA64508D91CEB040400F1FF3110
:104DA00002D2A64500F2BB800846A4EB0E0440EAFE
:104DB00003409CE7C6F12007B34022FA07FC4CEA07
:104DC000030C20FA07F401FA06F31C43F9404FEAFA
:104DD0001C4900FA06F3B1FBF9F8200C1FFA8CFE0F
:104DE00009FB181140EA014108FB0EF0884202FA63
:104DF00006F20BD91CEB010108F1FF3A80F0888024
:104E0000884240F28580A8F102086144091AA4B2E0
:104E1000B1FBF9F009FB101144EA014100FB0EFE61
:104E20008E4508D91CEB010100F1FF346CD28E4590
:104E30006AD90238614440EA0840A0FB0294A1EB21
:104E40000E01A142C846A64656D353D05DB1B3EB7E
:104E5000080261EB0E0101FA07F722FA06F3F140AE
:104E60001F43C5E9007100263146BDE8F087C2F155
:104E70002003D8400CFA02FC21FA03F391400143CD
:104E80004FEA1C471FFA8CFEB3FBF7F007FB103606
:104E90000B0C43EA064300FB0EF69E4204FA02F4B2
:104EA00008D91CEB030300F1FF382FD29E422DD905
:104EB000023863449B1B89B2B3FBF7F607FB16333A
:104EC00041EA034106FB0EF38B4208D91CEB0101BA
:104ED00006F1FF3816D28B4214D9023E6144C91A3A
:104EE00046EA004638E72E46284605E70646E3E64A
:104EF0001846F8E64B45A9D2B9EB020864EB0C0E54
:104F00000138A3E74646EAE7204694E74046D1E762
:104F1000D0467BE7023B614432E7304609E7644410
:104F2000023842E7704700BF034613F8012B002AFE
:104F3000FBD1181A0138704709480A49884208B558
:104F400005D0094A824202D0121A03F065F90748D7
:104F5000074A0021121A03F06DF9014808BD00BF8D
:104F6000F0E50320C8860B0060E6032060E603201E
:104F7000F0E7032070B5074E074C01F08FFFA41B2C
:104F8000A4080025AC4200D170BD56F8043B9847F8
:104F90000135F7E778860B009C860B0000F02CB8F3
:104FA00008B500F06BF8BDE8084001F02FBF00F035
:104FB00093BF00F091BF00F097BF0078B0FA80F087
:104FC0004009704701230370704738B504680546EF
:104FD0007CB16368013B63605BB9236820469B68D2
:104FE0009847A368013BA3601BB923682046DB6890
:104FF0009847284638BD00001FB5154800F04DFD04
:10500000144915480023022200F0E6FE1349144813
:105010000023022200F0E0FE12491348002302227E
:1050200000F0DAFE114912480023022200F0D4FEFB
:10503000104B11491B788DF8003000223C2302A848
:1050400001F0F0F803A8FFF7C0FF05B05DF804FB1E
:1050500068E60320B4E60320BC830B00ACE6032023
:10506000C1830B00B0E60320CA830B0064E6032073
:10507000D3830B0060E60320DC830B001FB51948C7
:1050800000F02EFB184B1748BDEEC00A83ED000A56
:1050900000F056FB154B1348BDEEC00A83ED000A25
:1050A00000F098FB124B0F48BDEEC00A83ED000ADA
:1050B0009FED100A00F060FC0F4B1049BDEEC00AD6
:1050C000002283ED000A0E4B1B788DF8003002A8F9
:1050D0003C2301F0A7F803A8FFF777FF05B05DF8C0
:1050E00004FB00BF68E60320B4E60320ACE603201F
:1050F000B0E6032000507D4464E60320F6830B00F5
:1051000060E60320024B034800221A7000F044B806
:1051100060E6032068E60320704710B510210446BE
:10512000FFF749FF204610BD0EB403B503AB0021C5
:1051300053F8042B019301F032FC02B05DF804EB4C
:1051400003B0704773B5044608462279A36832B1AC
:10515000A3B90B4902B0BDE8704001F0EFBB094AAA
:10516000267B094D0949647B012E18BF2946CDE9EC
:1051700000140749FFF7D8FF02B070BD054AEFE7FA
:105180000F840B0006840B000B840B0007840B00BC
:1051900025840B00FE830B004FF0FF330361704743
:1051A00013B50B4C2178BFF35B8F11F001010BD1CC
:1051B00020460191FFF701FF019928B1054801F050
:1051C0002BFC2046FFF7FEFE024802B010BD00BFD8
:1051D000B8E60320BCE6032008B5FFF7E1FFBDE811
:1051E000084001F037BC07B50190FFF7D9FF0199DE
:1051F00003B05DF804EB01F047BC2DE9F04190F9F4
:105200001330013305460F4606D1FFF7C9FF394673
:10521000BDE8F04101F0A6BC002407264FF00108CC
:1052200095F91300002180B201F0B9FE95F9110043
:1052300008FA06F1394080B201F0B1FE95F9130089
:10524000012180B201F0ABFE95F91200640080B23A
:10525000E4B201F0BDFE08B144F00104013EDFD22A
:105260002046BDE8F08100007FB590F91030013391
:1052700004460E46154613D10179006801F0F8F98D
:105280002068036831469B68984720680368294670
:105290009B689847206804B0BDE8704001F0F0B901
:1052A00090F9133001330CD1164B009300238DF885
:1052B0000430154B029368460123ADF80C30FFF71C
:1052C00092FF94F91000002180B201F068FE06F010
:1052D0007F012046FFF791FF29462046FFF78DFF0B
:1052E00094F91000012180B201F059FE94F91330B5
:1052F000013304D104B0BDE87040FFF76DBF04B0C6
:1053000070BD00BF4C840B0020A10700F8B5DB0086
:1053100002F0070203F03803134343EA81139DF8B8
:10532000186080F83C3090F840309DF81C509DF893
:10533000207066F3471380F84030ED0090F8383065
:1053400007F0070705F0380523F03F033D43044607
:105350001D4380F8385006F00702F221FFF784FF62
:1053600094F83820C2F3C20302F007019B0043EA1D
:10537000411343EAD2122046F521FFF775FF94F856
:105380003C20C2F3C20302F007019B0043EA411331
:1053900043EA92122046F421BDE8F840FFF764BFCB
:1053A00030B590F91030013385B004460D4618D160
:1053B0000179006801F05CF92068036829469B6860
:1053C0009847206801F05CF921792068012201F0FA
:1053D0004CF9206803685B699847C5B2284605B058
:1053E00030BD90F9133001330CD1154B00930023DD
:1053F0008DF80430134B029368460123ADF80C304E
:10540000FFF7F1FE94F91000002180B201F0C7FD12
:1054100045F080012046FFF7F0FE00212046FFF70F
:10542000ECFE054694F91000012180B201F0B7FDB1
:1054300094F913300133D1D1FFF7CEFECEE700BF90
:105440004C840B0020A1070008B5F321FFF7A8FF4B
:1054500000F0010008BD000030B590F910300133B4
:1054600085B004460D461FD10179006801F000F9AE
:105470002068036829469B689847206801F000F976
:1054800021792068022201F0F0F8206803685B6946
:1054900098470546206803685B69984740EA0520FD
:1054A00085B2284605B030BD90F9133001330CD1D8
:1054B000184B009300238DF80430174B0293684675
:1054C0000123ADF80C30FFF78EFE94F91000002197
:1054D00080B201F064FD45F080012046FFF78DFEAB
:1054E00000212046FFF789FE002105462046FFF7F0
:1054F00084FE40EA052085B294F91000012180B2B3
:1055000001F04DFD94F913300133CAD1FFF764FE69
:10551000C7E700BF4C840B0020A1070008B5FFF7C8
:105520009BFF40BA80B208BD38B588210446FFF71A
:10553000F5FF8A21A0822046FFF7F0FF8C21E08250
:105540002046FFF7EBFF8E2120832046FFF7E6FF82
:10555000902160832046FFF7E1FF9221A08320463F
:10556000FFF7DCFF9421E0832046FFF7D7FF962169
:1055700020842046FFF7D2FF982160842046FFF761
:10558000CDFF9A21A0842046FFF7C8FF9C21E0842C
:105590002046FFF7C3FF9E2120852046FFF7BEFF70
:1055A000A12160852046FFF7FBFEE12184F82C0055
:1055B0002046FFF7B3FFE321E0852046FFF7F0FE2A
:1055C000E42184F830002046FFF7EAFEE521054695
:1055D0002046FFF7E5FE00F00F0343EA0510608662
:1055E000E6212046FFF7DCFEE52105462046FFF7D1
:1055F000D7FEC0F3071343EA0510A086E721204633
:10560000FFF7CEFE84F8360038BD000030B590F9C3
:105610001030013385B004460D4623D1017900686E
:1056200001F026F82068036829469B68984720689F
:1056300001F026F821792068032201F016F820688D
:1056400003685B6998470502206803685B699847AF
:1056500028430502206803685B699847054328468C
:1056600005B030BD90F9133001330CD11A4B0093C3
:1056700000238DF80430194B029368460123ADF8DE
:105680000C30FFF7B0FD94F91000002180B201F05A
:1056900086FC45F080012046FFF7AFFD0021204643
:1056A000FFF7ABFD002105022046FFF7A6FD2843CA
:1056B000050200212046FFF7A0FD054394F91000E4
:1056C000012180B201F06BFC94F913300133C6D193
:1056D000FFF782FDC3E700BF4C840B0020A1070049
:1056E00010B5FA210446FFF791FFB0F5000F1FD067
:1056F000A18A9FED117A4B00C1EB2022C3EBE01190
:10570000B4F91630594302FB02F3B4F918201B1305
:1057100053439B1303EBE123E36003EB83038033E9
:105720001B1207EE903AF8EEE77A87EE870A10BD73
:105730009FED020AFBE700BF0000C8420000C07FE7
:1057400038B50446FFF7CCFFFD212046FFF784FE65
:10575000B0F5004F38D0E168B4F93420A1F59635A2
:10576000B4F932100905C1EB803305FB123303F5A0
:105770008043DA1394F8303094F936106B43DB121F
:105780006943891203F500434B439B12B4F92E1071
:1057900003F500134B4303F500539B135343DA13F4
:1057A00094F82C105243D2114A43A3EB221323EA5C
:1057B000E373B3F1C85FA8BF4FF0C8531B1300EEEB
:1057C000103ABAEECB0A38BD9FED010AFBE700BFE5
:1057D0000000C07F2DE9F8430546FFF781FFF72160
:1057E0002846FFF713FFB0F5000F00F0B680E96818
:1057F000B5F91C304FEAE17EB1F5FA314EF1FF3ECA
:10580000DC1703FB0EF201FB0422A3FB013422444C
:105810001203A1FB01781C0301FB0EF642EA1352AE
:10582000B5F91E3008EB46084FEAE37C03FB08F6A7
:1058300007FB0C66A3FB073C66441B0A43EA0663AE
:105840001B1942EB26226E8B02F50042A3FB0634A5
:1058500006FB0244E317621053EA64044FF0000CA5
:105860007ED0B5F9244004FB08F64FEAE47907FB43
:105870000966A4FB07473E44B5F922704FEAE77872
:1058800007FB0EFE01FB08EEA7FB01717144490402
:1058900041EAD73100117F043F19C0F5801446EB6F
:1058A000010604F00040B5F920101CEB070740EAA0
:1058B0005400E407E41B06EBC10640F6354160EBFB
:1058C0000606A4FB010401FB0641FFF773F9B5F9D5
:1058D0002A20B5F928604FEA613C430B43EAC143F3
:1058E00002FB0CF7D41703FB0477A2FB03243C4410
:1058F00002FB0CF703FB0477A2FB03231F44530EA8
:1059000043EAC7131B184FEAE67206FB01F486460A
:1059100041EB676702FB0041A6FB0E06B5F9264086
:105920003144C00C40EA413018184FEAE47547EBA7
:10593000E141000A2D0140EA016045EA14752401A5
:10594000201845EB2121FFF7F7F89FED070A07EE36
:10595000900A27EE800ABDE8F8839FED040AFAE773
:105960009FED030AF7E700BF0000803B0000C07F07
:10597000000000000000000008B52DED028BB0EE25
:10598000408AFFF727FF9FED167AC0EE077AC7EE31
:10599000887A17EE900AFEF7A7FC9FED0D1B41ECED
:1059A000100B01F0ADFB0F4953EC102B0020FEF75C
:1059B0003BFB09A3D3E90023FEF7EEFCFEF79CFFB7
:1059C000BDEC028B00EE100A08BD00BFAFF30080F3
:1059D000EBE2361AC05BC83F0000000040A5E5407E
:1059E0000000C8420000F03F30B5044690F91000B6
:1059F000421C85B019D1206800F008FED021204655
:105A0000FFF7CEFC6028A06045D12046B622E021F9
:105A1000FFF72AFC4FF4967000F09EFA2046FFF73D
:105A200013FD054628B36420F6E7012180B201F09A
:105A3000B6FA94F91000012180B201F09FFA94F9AE
:105A40001300431C04D1FFF7ABFB00F0EFFFD5E7D9
:105A5000012180B201F092FA94F91100012180B283
:105A600001F08CFA94F91200002180B201F086FA5C
:105A7000C4E72046FFF758FD052300931A4603218B
:105A80002046CDE90155FFF741FC642000F064FA9F
:105A9000012005B030BD0020FBE7772310B503716E
:105AA000044601F0C3FA20602046FFF79DFF30B99D
:105AB000762323712046BDE81040FFF795BF10BD47
:105AC00008B5024B1B685B6C019308BD48020300DC
:105AD00008B5024B1B685B68019308BD1802030000
:105AE00008B5024B1B685B69019308BD18020300EF
:105AF00008B5024B1B689B68019308BD2C0203008C
:105B000008B5024B1B68DB68019308BD2C0203003B
:105B100008B5024B1B681B69019308BD2C020300EA
:105B200008B5024B1B685B69019308BD2C0203009A
:105B300008B5024B1B68DB68019308BD280203000F
:105B400008B5024B1B689B69019308BD280203003E
:105B500008B5024B1B68DB69019308BD28020300EE
:105B600008B5024B1B681B6A019308BD280203009D
:105B700008B5024B1B685B6A019308BD280203004D
:105B800008B5024B1B689B6A019308BD28020300FD
:105B900008B5024B1B68DB6A019308BD28020300AD
:105BA00008B5024B1B681B6B019308BD280203005C
:105BB00008B5024B1B685B6B019308BD280203000C
:105BC00008B5024B1B681B6C019308BD280203003B
:105BD00008B5024B1B681B6D019308BD280203002A
:105BE00008B5024B1B685B69019308BD64020300A2
:105BF00008B5024B1B689B68019308BD680203004F
:105C000008B5024B1B68DB68019308BD68020300FE
:105C100008B5024B1B681B68019308BD30020300E6
:105C200008B5024B1B685B69019308BD3002030095
:105C300008B5024B1B68DB69019308BD3002030005
:105C400008B5024B1B681B6A019308BD30020300B4
:105C500008B5024B1B685B6A019308BD3002030064
:105C600008B5024B1B68DB6B019308BD30020300D3
:105C700008B5024B1B681B6C019308BD3002030082
:105C800008B5024B1B685B6C019308BD3002030032
:105C900008B5024B1B68DB68019308BD3C0203009A
:105CA00008B5024B1B681B69019308BD3C02030049
:105CB00008B5024B1B685B69019308BD3C020300F9
:105CC00008B5024B1B689B69019308BD3C020300A9
:105CD00008B5024B1B68DB69019308BD3C02030059
:105CE00008B5024B1B681B6A019308BD3C02030008
:105CF00008B5024B1B689B6A019308BD3C02030078
:105D000008B5024B1B681B6C019308BD3C020300E5
:105D100008B5024B1B681B68019308BD4C020300C9
:105D200008B5024B1B681B69019308BD4C020300B8
:105D300008B5024B1B685B69019308BD4C02030068
:105D400008B5024B1B689B69019308BD4C02030018
:105D500008B5024B1B68DB69019308BD4C020300C8
:105D600008B5024B1B681B6A019308BD4C02030077
:105D700008B5024B1B685B68019308BD2002030055
:105D800008B5024B1B685B69019308BD2002030044
:105D900008B5024B1B68DB6C019308BD20020300B1
:105DA00008B5024B1B685B6D019308BD2002030020
:105DB00008B5034B1B68D3F88830019308BD000079
:105DC0002002030008B5034B1B68D3F894300193FD
:105DD00008BD00002002030008B5024B1B681B68C9
:105DE000019308BD4402030008B5024B1B685B69C0
:105DF000019308BD4402030008B5024B1B681B6AEF
:105E0000019308BD4402030008B5024B1B68DB6B1D
:105E1000019308BD4402030008B5024B1B685B6890
:105E2000019308BD4002030008B5024B1B689B6844
:105E3000019308BD4002030008B5024B1B68DB68F4
:105E4000019308BD4002030008B5024B1B681B69A3
:105E5000019308BD4002030008B5024B1B685B6953
:105E6000019308BD4002030008B5024B1B689B6903
:105E7000019308BD4002030008B5024B1B68DB69B3
:105E8000019308BD4002030008B5024B1B681B6A62
:105E9000019308BD4002030008B5024B1B681B6B51
:105EA000019308BD4002030008B5024B1B685B6B01
:105EB000019308BD4002030008B5024B1B681B6C30
:105EC000019308BD4002030008B5024B1B685B6CE0
:105ED000019308BD4002030008B5024B1B681B6814
:105EE000019308BD1C02030008B5024B1B685B68E8
:105EF000019308BD1C02030008B5024B1B685B6AD6
:105F0000019308BD1C02030008B5024B1B68DB6A45
:105F1000019308BD1C02030008B5024B1B681B6BF4
:105F2000019308BD1C02030008B5024B1B68DB6B24
:105F3000019308BD1C02030008B5024B1B681B6CD3
:105F4000019308BD1C02030008B5024B1B685B6C83
:105F5000019308BD1C0203000021FFF711BF10B51B
:105F6000836804460BB901F0C7F8C3689847A36873
:105F70001BB1032221462046984720461021BDE848
:105F80001040FFF718B810B58368044613B1032218
:105F900001469847204610BD13B50B460246D0E98E
:105FA00000016C4684E8030093E8030082E80300E4
:105FB00094E8030083E8030002B010BD0248002308
:105FC0000360FFF77DBD00BFC4E6032070470020DB
:105FD000704710B510210446FEF7EDFF204610BDB6
:105FE00008B5FFF7F6FF08BD30B500224FF69C74E8
:105FF000026084808D888C800C68858004600A60D3
:1060000030BD10B504460068FFF76EFF204610BD96
:1060100038B5C468F4B12378022B03D104F10C0025
:10602000FFF7EFFF656835B12846FFF7ACFF102199
:106030002846FEF7C0FFA56835B12846FFF7A3FF45
:1060400010212846FEF7B7FF20461421BDE838404E
:10605000FEF7B1BF38BD0B6803604B68436013B1F6
:106060005A6801325A60704737B5044668460D4693
:10607000FFF7F1FF009B019A23606260002301A8F3
:1060800001930093FEF7A1FF35B1281DFEF79DFF98
:1060900008212846FEF78FFF204603B030BD8268F6
:1060A00010B50AB901F028F8BDE81040C3681847D8
:1060B00008B5006800F11001FFF7F1FF08BD826824
:1060C00010B50AB901F018F8BDE81040C3681847C8
:1060D00008B5006800F11001FFF7F1FF08BD0000EE
:1060E00038B500230446036010200D46FEF75FFF1D
:1060F00028B10123C0E90133024B0360C560206071
:10610000204638BD60840B0038B5002383608B685F
:1061100004460D462BB102229847EB68E360AB685A
:10612000A360204638BD0000F0B589B00468684619
:10613000FFF75AFF4FF00203D4E84F2F002A03D194
:10614000C4E8413F0029F7D125D104F10C05694687
:106150002846FFF749FFBFF35B8F012363700020E0
:1061600004F10803BFF35B8F53E8006F43E80002BC
:10617000002AF9D1BFF35B8F6EB1FFF709FE78B14A
:1061800029463046FFF78BFF3046FFF7FCFE102113
:106190003046FEF710FF6846FFF733FF09B0F0BD49
:1061A000314602A8FFF7B0FFE068B4F9105008B11B
:1061B00002F076F806901020ADF81C50FEF7F7FEBE
:1061C0000546E8B1002787601820FEF7F0FE044678
:1061D00088B10146876002A8FFF7DEFE049BA26833
:1061E000A360059B049206A9E268E36004F1100035
:1061F0000592FFF7F9FE084BEB60084B2C60AB6093
:1062000006A8FFF7FEFE02A8FFF7BDFE0022294602
:106210000348FFF7C5FDB7E7B1600B0035630B001E
:106220005F5F0B002DE9F04F8BB005469DF850A045
:106230000F4690469946FFF7D7FD07AE834638BB19
:106240004FF62E73059005A93046ADF81830FFF7CC
:10625000CBFE1420FEF7ABFE044648B102230370C8
:106260000123C0E901BB437031460C30FFF7BCFE8F
:106270002846214640F8044BFFF732FF3046FFF72F
:10628000C0FE05A8FFF7BDFE28460BB0BDE8F08FA5
:106290000C2300241420CDE908440793FEF787FE61
:1062A000014618B1C0E901440470447004A8039188
:1062B000FFF716FF1E4B08930820FEF778FE0446F2
:1062C00010B103A9FFF7C7FE00965FFA8AF34A46AA
:1062D000414638460994FFF78FFDB8B9039B5B78B8
:1062E00003F0FF0293B94FF69C7305A903A805922A
:1062F000ADF81830FFF718FF05A8FFF782FE05A8D4
:106300000999FFF7B1FE06A8FEF75FFE03A905A8ED
:10631000FFF7A1FE059B069A2B606A60002306A882
:1063200006930593FEF751FE04A8FEF74EFEABE779
:10633000B1630B00012AF8B5054603D10B68036071
:106340000020F8BD022A10D0032AF9D10468002CDD
:10635000F6D004F11000FFF754FE2046FFF713FEBD
:1063600018212046FEF727FEEAE718200E68FEF700
:106370001EFE044650B13146FFF7C6FE3069B6F93D
:10638000147008B101F08CFF2061A7822C60D7E760
:1063900038B5002383608B6804460D462BB102227A
:1063A0009847EB68E360AB68A360204638BD000007
:1063B000F0B589B004460D4601A81146FFF754FE1A
:1063C000A4B124B21DB1284601F06AFF054601A818
:1063D00003A90395ADF81040FFF7A6FE03A8FFF749
:1063E00010FE02A8FEF7F1FD09B0F0BD019D0123EA
:1063F000D5E84F2F002A03D1C5E8413F0029F7D146
:10640000EFD12B73BFF35B8F6B702B1DBFF35B8FD3
:1064100053E8006F43E80042002AF9D1BFF35B8FD5
:10642000002EDED02046FFF7B3FC074660B105F131
:106430000C013046FFF743FE3046FFF7A4FD102164
:106440003046FEF7B8FDCCE7314603A8FFF7A0FFC2
:106450002B7B8DF81C301020FEF7A9FD0546D0B12E
:1064600087601420FEF7A3FD044678B187600146DB
:1064700003A8FFF791FD059BA268A360069B059208
:10648000E268E3609DF81C3006922374064BEB60D3
:10649000064B2C60AB6003A8FFF775FD0022294670
:1064A0000348FFF77DFCC7E7D1600B00B5640B0024
:1064B0005F5F0B00012A70B5044603D10B680360CF
:1064C000002070BD022A0CD0032AF9D10468002CE8
:1064D000F6D02046FFF757FD14212046FEF76BFD4E
:1064E000EEE714200E68FEF762FD054620B1314646
:1064F000FFF74EFF337C2B742560E1E700224068F4
:106500001146FFF7C1BC002240681146FFF7CCBC22
:1065100040680022FFF7C0BC4068002281F0010102
:10652000FFF7AABC002340681A461946FFF79CBC37
:10653000002340681A461946FFF78EBC00224068C7
:106540001146FFF781BC002240681146FFF76CBC82
:10655000406800220221FFF76FBC002340681A4602
:10656000FFF75ABC024B03225A60024A1A60704776
:10657000C8E603207C840B007047F8B50646154634
:106580000C468F18BC4206D0336814F8011B9B6878
:1065900030469847F6E72846F8BD007C0022FFF712
:1065A000DFBA007C0021FFF7E3BA007C0021FFF78F
:1065B000E7BA007C0021FFF7EBBA007C0021FFF76F
:1065C000EFBA10B514210446FEF7F5FC204610BDC5
:1065D00038B5044615464FF47A730022C4E9012306
:1065E000094B2174084623602946FFF7E9FABF30BA
:1065F00008D16B69DB0705D56868FFF775FCE868AB
:10660000FFF772FC204638BDB8840B000023007CE5
:106610001A461946FFF78CBA7FB500221423CDE93C
:106620000122ADF804300B788DF808304B680393E5
:10663000CB680493007C0B7A059301A9FFF7C8FA95
:1066400007B05DF804FB1FB5003B8DF800104FF05C
:106650006401039118BF0123694601928DF8083047
:10666000FFF7DAFF05B05DF804FB0123FFF7EBBF8E
:10667000007C0022FFF764BA007C0022FFF768BAB2
:106680000121FFF7F9BF704710B518210446FEF746
:1066900092FC204610BDF0B5037D062B8DB00E4652
:1066A00000F104074FF0000412D000F1080515F8BE
:1066B000011D0A22304600F054F9AF42044419D0BB
:1066C000002CF4D02E21304600F03CF90444EEE7D3
:1066D0002F236A4639460A208DF80040FFF780FADA
:1066E0006846FEF721FC33680246DB68694630469F
:1066F0009847044620460DB0F0BD000010B5054B8C
:106700000446112240F8043B002101F093FD20468D
:1067100010BD00BFE0840B000346074A10B543F8E4
:10672000042B01F1100251F8044B43F8044B914241
:10673000F9D10A781A7010BDE0840B0010B59DF8ED
:10674000084044EA032343EA024242EA0161042387
:106750004160037510BD000007B5064B0360CB78A0
:1067600000938B784A780978FFF7E8FF03B05DF86B
:1067700004FB00BFE0840B00014B024A1A60704723
:10678000D0E60320EC840B00002340681A46FFF794
:1067900043BB406800220221FFF74EBB0022406845
:1067A0001146FFF741BB002240681146FFF74CBB82
:1067B000002340681A461946FFF74EBB0023406885
:1067C0001A461946FFF750BB40680021FFF774BB1B
:1067D00040680021FFF778BB4068002281F001018A
:1067E000FFF74ABB40680022FFF756BB0022406813
:1067F0001146FFF759BB002240681146FFF744BB22
:106800002DE9F04395B014460D460746FFF776FF95
:1068100000211C220DA8009101F00CFD40230C93D7
:1068200020466B460CAA0021FFF7EAF9044600282F
:106830004BD1024601216868FFF706FB0221804622
:1068400022466868FFF700FB009E81462146002E25
:106850003BD0002939D17368022B03D00A2B11D009
:10686000F669F4E7B8F1000FFAD0716906A80431AF
:1068700007ADFFF771FF0FCD3C1D0FC42B682370D0
:106880004146EDE7B9F1000FEAD07469102201A882
:1068900001F0D0FC06238DF8143001AD04F108039B
:1068A0001834186859682A4603C20833A3421546AB
:1068B000F7D101A906A807ADFFF72EFF0FCD3C1DAC
:1068C0000FC42B6823704946CAE70098FFF790F978
:1068D000384615B0BDE8F083024B034A1A60002227
:1068E0005A607047D4E60320F8840B00F8B50646DA
:1068F0000D468F180024BD420CD0336815F8011BDB
:106900009B6830469847031E01DB1C44F3E7002CCC
:1069100008BF1C462046F8BD13B50446084659B1C9
:106920000191FEF701FB23680199DB6802462046CE
:1069300002B0BDE81040184702B010BD08B5FFF71F
:10694000EBFF08BD03689B68184738B50D21054665
:10695000FFF7F8FF0A2104462846FFF7F3FF20441B
:1069600038BD30B58BB00023012A8DF8243098BF94
:106970000A2209AC0D46B1FBF2F101FB125303F000
:10698000FF03092B94BF30333733DBB2AA4204F83C
:10699000013DEFD92146FFF7BFFF0BB030BD2DE918
:1069A000F04186B000AF05460E46381D142114464E
:1069B0003B60FFF7A1FA13280ED8391D2846FFF7D0
:1069C000ABFF04461EB12846FFF7BFFF0444204634
:1069D0001837BD46BDE8F08100F1080323F0070336
:1069E000E846ADEB030D2246411C3B686846FFF7C5
:1069F00083FA69462846FFF78FFF0446C546E1E75C
:106A0000014B00229A607047DCE603200021FFF76B
:106A100037B90021FFF72CB910B50446084621709C
:106A2000FFF706F900236360204610BD13B5044646
:106A30000078FFF7EEFF58B9207801904FF6FF710C
:106A4000FFF7E6F8019802B0BDE81040FFF7DEBF9F
:106A500002B010BD0078FFF7D9BF0000400830B584
:106A60001860002418688842E5B206D90134082C61
:106A700002D040081860F5E70725024B5B5D1370F4
:106A800030BD00BF2C850B002DE9F04306468FB0CA
:106A900000780C46FFF7BDFF00281BDB3578142279
:106AA000002109A801F0C6FB0B23002209A92846F2
:106AB000ADF82430FFF7CCF89DF82D3013B19DF8D8
:106AC0002C5055B10027B946B846012523795DB150
:106AD000C3B100200FB0BDE8F083DDF830809DF831
:106AE00034909DF83570F1E7002B35D1A36843450C
:106AF00008D18DF820908DF82170BDF82020A38951
:106B00009A42E6D00023A1688DF80F300A9804ABB2
:106B10000DF10F02FFF7A2FF217985B989B9A368AA
:106B200043450ED38DF820908DF82170BDF82020BC
:106B3000A3899A4205D1049B434502D1C9E70029A4
:106B4000F9D100230193637B00939DF80F20237BF1
:106B50003078FFF785F8BCE7CDE900552B462A468B
:106B60000121F5E708B50078FFF75AF8C0B208BD73
:106B7000054B02221A60054B054A9A600020C3E9C2
:106B80000000FFF7F5B800BFF8E60320ECE60320AD
:106B90000000FFFF024B1A68024B1A60704700BFEB
:106BA000F0E50320FCE6032070474174704708B508
:106BB000007CFFF79DF820EAE07008BD08B5007C76
:106BC000FFF76EF820EAE07008BD08B5007CFFF71B
:106BD00077F840EAE07008BD08B5007CFFF768F878
:106BE00040EAE07008BD007CFFF772B837B5457C1D
:106BF00004462DB1207C03B0BDE83040FFF748B813
:106C0000007C0191FFF774F800280199F2DC284616
:106C100003B030BD10B514210446FEF7CCF9204670
:106C200010BD000010B54FF47A73044608461146B3
:106C30000022C4E90123044B236001232074637400
:106C4000FFF75EF8204610BD58850B004174704771
:106C50007047704708B50021007CFFF771F840EAE3
:106C6000E07008BD08B50121007CFFF769F840EA33
:106C7000E07008BD08B5007CFFF75AF820EAE07024
:106C800008BD08B5007CFFF74BF820EAE07008BDAE
:106C900013B50446007C0191FFF74AF800280199DA
:106CA00001DC607C20B1207CFFF752F820EAE07024
:106CB00002B010BD007CFFF753B810B51421044694
:106CC000FEF779F9204610BD10B54FF47A730446EB
:106CD00008460021C4E90113044B236001232074FA
:106CE00063741146FFF714F8204610BD88850B0029
:106CF00010B514220446002101F09CFA204610BD74
:106D000010B50F4C88B003A8FFF7F2FF2178BFF34E
:106D10005B8F11F001010FD120460191FEF74DF973
:106D2000019948B103AA0748FFF7CEFF2046FEF7B6
:106D300049F9054801F06AFA024808B010BD00BFE1
:106D400000E7032004E70320516C0B000022406899
:106D50001146FFF779B8002240681146FFF794B852
:106D6000002240681146FFF79FB840680022FFF7F5
:106D700093B84068002281F00101FFF77DB800233D
:106D800040681A461946FFF76FB8002340681A4654
:106D90001946FFF761B8002240681146FFF744B872
:106DA000406800220221FFF747B8002340681A46D6
:106DB000FFF732B8024B04225A60024A1A60704749
:106DC00018E70320B8850B00014B1860704700BF1F
:106DD000F8E5032008B50B4B43B1FFF791FF0368BB
:106DE0001B699847002801DDAFF30080064B43B1D3
:106DF00000F05CF903681B699847002801DDAFF3D8
:106E0000008008BD000000000000000008B5FFF78A
:106E1000E1FFFEF765FE014B186008BD28E703207F
:106E20000548064A064908B5121A01F0F5F9054B5E
:106E3000054A1A6008BD00BF00F4032004F40320D3
:106E400038870B0000F403201E1C279A07B5002387
:106E500000931A466FF07701FEF7B4FF03B05DF8B8
:106E600004FB000007B543880A2B08D0502B0BD138
:106E7000094B1B684BB103B05DF804EB1847FFF7F3
:106E8000E5FF03B05DF804FB002300931A466FF0A2
:106E90007701FEF797FFF4E724E7032010B51248C7
:106EA0000021FFF751F8114B1A68114B9A42114B10
:106EB0000CBF012200221A7001D0FFF7B1FFFEF7CC
:106EC00007FE044601F0BEF90B4B13B12046AFF3A9
:106ED000008000210848FEF797FFBDE810400748F2
:106EE0000021FEF765BF00BFC96D0B0000F4032051
:106EF0001E1C279A20E7032000000000656E0B008F
:106F0000232813B502D9002002B010BDA0F10B0355
:106F1000022B1AD8174C2178BFF35B8F11F00101B7
:106F20000BD120460191FEF748F8019928B112488B
:106F3000FFF772FD2046FEF745F80F4B1878FEF775
:106F40007FFE0028DFD10120DEE7012809D800F00C
:106F50006DF80021007CFEF72BFE80F00100C0B22E
:106F6000D2E709380128EED800F0A0F8007CFEF73F
:106F7000B7FEF2E7B8E60320BCE60320232838B5C5
:106F800004460D460AD8FF2908D0FFF7B9FF28B1FB
:106F900029462046BDE83840FEF7AABD38BD38B5C1
:106FA00004460D46FEF7ACFDFF2810D0062804D895
:106FB0004D2323FA00F0C30709D42046FFF7A0FFB2
:106FC00028B129462046BDE83840FEF7A1BD38BDAE
:106FD00010B50446FEF794FD031FDBB2012B08D960
:106FE0002046FFF78DFF20B12046BDE81040FEF798
:106FF00097BD002010BD704738B50A4B03600123D0
:10700000044643610849202000F074F820256060A0
:107010000549A560284600F06DF8C4E9030520463F
:1070200038BD00BF18000100EC850B0030B50E4DD7
:107030002978BFF35B8F11F0010487B011D1284686
:10704000FDF7BBFF68B16846FFF7D6FF6A462146E9
:107050000648FFF7BDFA2846FDF7B4FF044801F0E3
:10706000D5F8024807B030BD2CE7032030E70320F5
:10707000F76F0B007047000038B5044614252A4608
:10708000002101F0D7F825804025074925812846B1
:10709000258200F02FF804496060284600F02AF8A5
:1070A000E060204638BD00BFEC850B0030B50E4DCA
:1070B0002978BFF35B8F11F0010487B011D1284606
:1070C000FDF77BFF68B101A8FFF7D6FF01AA2146B3
:1070D0000648FFF7A7FD2846FDF774FF044801F0B6
:1070E00095F8024807B030BD44E7032048E7032085
:1070F00075700B00FDF75DBF08B5FEF705FF0000DA
:10710000F8B52DED028B57EC106B55EC114B00F0E0
:10711000CBF8634BB0EE408AF0EE608A93F9003012
:1071200001332AD022462B4620462946FDF7CEFBC6
:1071300018BB32463B4630463946FDF7C7FB0028B0
:1071400044D10022002330463946FDF78DFBD8B1EB
:107150000022002320462946FDF786FB00283DD16A
:1071600045EC104B00F010FF38B1204629460022B4
:107170000023FDF783FB00285CD1B0EE480AF0EE57
:10718000680ABDEC028BF8BDB0EE480AF0EE680A62
:1071900000F0FAFE58B351EC180B00220023FDF763
:1071A00063FB0028E9D047EC106B00F0EDFE0028EF
:1071B000E3D045EC104B00F0E7FE0028DDD0FEF7F1
:1071C000B3FE22239FED2E8B0360D6E7204629468F
:1071D00000220023FDF748FB0028CED09FED2A8B2C
:1071E000B0EE480AF0EE680ABDEC028BF8BD47EC41
:1071F000106B00F0C9FE0028CDD045EC104B00F01C
:10720000C3FE0028C7D053EC182B18EE100A1946FD
:10721000FDF75CFB20BBFEF787FE034622221A60C7
:107220003046394600220023FDF728FB48B99FED80
:10723000188BA2E7FEF778FE21239FED178B0360E2
:107240009BE745EC104B00F0B3FE224651EC100BCF
:107250002B46FDF709FB0028E9D19FED0F8B8CE74A
:10726000FEF762FE0022002321210160104619462C
:10727000FDF7BCF941EC180B7FE700BFAFF30080CE
:107280000000000000000000000000000000F03FCF
:10729000000000000000F07F000000000000F0FF90
:1072A000F4E50320000000002DE9F04F57EC116BCE
:1072B0002DED0C8B27F0004A5AEA060287B03DD02C
:1072C00055EC104B724925F00048884510EE102A05
:1072D000A9462CDC11EE103ABB4636D08A4526DC96
:1072E0006B498A4521D0B9F1000F39DB00210091AB
:1072F000002B51D1664B9A4500F0A280654B9A4510
:1073000000F0B080BBF1804F00F0C084624B9B4521
:1073100042D1B9F1000F3FDB45EC104B07B0BDEC9B
:107320000C8BBDE8F04F00F059BD002BDBD008F10D
:10733000404808F5801858EA020309D19FED500B28
:1073400007B0BDEC0C8BBDE8F08F0CB9C245C7DDB2
:10735000524807B0BDEC0C8BBDE8F04F00F020BEEA
:107360004F498A4500F38580A1F154718A450FDDAC
:107370004FEA2A51A1F2FF31142940F39B84C1F155
:10738000340123FA01F000FA01F1994200F0ED8492
:1073900000210091002BB1D045EC104B029200F07F
:1073A000E9FD029A5ABBB8F1000F04D0394B29F01D
:1073B00040429A4223D1BBF1000F07DA53EC102B65
:1073C00034490020FDF712F941EC100BB9F1000F20
:1073D000B6DA009B08F1404808F5801858EA030324
:1073E00040F08D8453EC102B10461946FCF71CFE20
:1073F00002460B46FDF7FAF841EC100BA0E7009AA5
:107400004FEAD973013B0493134335D0254B9A457A
:107410004CDD03F104739A45234B40F3DB8398451D
:1074200040F36083BBF1000F40F3608316A3D3E900
:10743000002310461946FCF7AFFF41EC100B7FE725
:1074400008F1404303F5801313433FF477AF164B25
:10745000984540F37A83BBF1000FC0F2478347ECB5
:10746000106B6DE7BBF1000FC0F21A8445EC104BB6
:1074700066E7022100913BE722462B46B4E700BFB6
:10748000000000000000F03F9C7500883CE4377E5F
:107490000000F07F0000F03F0000E03FF0850B00AF
:1074A000FFFF3F430000E041FFFFEF3FE44B09EAED
:1074B0000303002253B951EC100BE24BFCF76CFFB5
:1074C00041EC100B10EE908A6FF034024FEA285313
:1074D000A3F2FF339A18DC4B0592C8F3130848F067
:1074E0007F54984544F4401407DDD84B984540F349
:1074F000148401320592A4F580149FEDB96B9FEDC1
:10750000BA7B53EC162BB0EE47CAF0EE67CA0025E3
:10751000B0EE47DAF0EE67DA5BEC10ABA34650460C
:10752000594643EC1A2BFCF77FFD53EC1A2B80468F
:10753000894650465946FCF779FD02460B46002025
:10754000C349FDF753F841EC1B0B404653EC1B2B92
:107550004946FCF721FF41EC180B0A460146CDE9EC
:1075600002120021029164104BEC19AB44F000545C
:10757000DDE902AB04F500230020591904460D464D
:1075800002460B4650465946FCF706FF02460B469C
:1075900040464946FCF748FD53EC1A2B8046894685
:1075A00020462946FCF740FD02460B4651EC190BDC
:1075B000FCF73AFD52465B46FCF7EEFE02460B46F0
:1075C00040464946FCF730FD53EC1B2BFCF7E4FE2C
:1075D00053EC182B41EC190B51EC180BFCF7DCFEAB
:1075E00083A3D3E9002304460D46FCF7D5FE82A30E
:1075F000D3E90023FCF71AFD22462B46FCF7CCFE0C
:107600007FA3D3E90023FCF711FD22462B46FCF7AC
:10761000C3FE7DA3D3E90023FCF708FD22462B46D9
:10762000FCF7BAFE7AA3D3E90023FCF7FFFC22465D
:107630002B46FCF7B1FE78A3D3E90023FCF7F6FC58
:107640002246804689462B4620462946FCF7A4FE62
:1076500002460B4640464946FCF79EFE524604460B
:107660000D465B4651EC180BFCF7E0FC53EC192B74
:10767000FCF792FE22462B46FCF7D8FC5246804689
:1076800089465B4650465946FCF786FE02460B4645
:1076900043EC1A2B6F4B0022FCF7C8FC42464B46CA
:1076A000FCF7C4FC00240D4622462B4650465946A2
:1076B000FCF772FE674B82468B4600222046294625
:1076C000FCF7B2FC53EC1A2BFCF7AEFC02460B465F
:1076D00040464946FCF7A8FC53EC182BFCF75CFE2F
:1076E00022462B4604460D4651EC190BFCF754FE7E
:1076F00002460B4620462946FCF798FC8046894600
:1077000042464B4650465946FCF790FC44A3D3E909
:107710000023002004460D46FCF73EFE524641EC95
:10772000190B5B4620462946FCF77EFC02460B46B9
:1077300040464946FCF778FC3BA3D3E90023FCF71D
:107740002BFE02460B462046294614461D4638A30A
:10775000D3E90023FCF720FE02460B4620462946CB
:10776000FCF764FC53EC1D2BFCF760FC804605988D
:107770008946FCF7A7FD424682468B464B4651ECB4
:10778000190BFCF753FC53EC1C2BFCF74FFC524637
:107790005B46FCF74BFC52465B46002004460D4618
:1077A000FCF742FC53EC1C2BFCF73EFC53EC192B72
:1077B000FCF73AFC02460B4640464946FCF734FCCF
:1077C000009B049A013B134382468B4640F0B681EE
:1077D0009FED197BB0EE478AF0EE678A3CE000BF70
:1077E000000000000000F03F00000000000000006A
:1077F000EF4E454A287ECA3F65DBC9934A86CD3F96
:1078000001411DA96074D13F4D268F515555D53F7B
:10781000FFAB6FDBB66DDB3F033333333333E33F13
:10782000000000E009C7EE3FFD033ADC09C7EE3F68
:10783000F5015B14E02F3EBE000000000000F0BF29
:107840000000F07F000040438E98030079B60B00E3
:107850000000F03F000008400023CDE900670093DE
:10786000DDE90089304642464B463946FCF7DCFBF1
:1078700022462B46FCF790FD32463B4606460F4615
:1078800050465946FCF788FD02460B4630463946BD
:10789000FCF7CCFB42464B4606460F46204629469F
:1078A000FCF77AFD04460D462B4630463946224603
:1078B000FCF7BCFBC24B9942804689468A4640F39E
:1078C000188101F13F4303F5E003034340F00782D1
:1078D000A3A3D3E9002330463946FCF7A7FB0246B1
:1078E0000B46404649469046994622462B46FCF7B1
:1078F0009BFB02460B4640464946FCF7DDFF00284D
:1079000040F0ED81CAF30A534FF48012A3F2FE3324
:1079100042FA03F35344AB49C3F30A52A2F2FF32D3
:1079200041FA02FCC3F3130141F48011C2F11402C5
:1079300041FA02F2002023EA0C01BAF1000F009292
:107940000B46024602DA0099494200912046294638
:10795000FCF76AFB009B1B05029302460B4604469C
:107960000D4630463946FCF761FB89464FF000086A
:107970007DA3D3E9002340464946FCF70DFD22468E
:107980002B4682468B4640464946FCF74DFB024655
:107990000B4630463946FCF747FB75A3D3E9002375
:1079A000FCF7FAFC74A3D3E9002304460D464046D5
:1079B0004946FCF7F1FC02460B4620462946FCF7F7
:1079C00035FB06460F4632463B4650465946FCF7C5
:1079D0002DFB52465B4604460D46FCF725FB02464E
:1079E0000B4630463946FCF71FFB22468046894647
:1079F0002B4620462946FCF7CFFC61A3D3E90023A0
:107A000006460F46FCF7C8FC5FA3D3E90023FCF74A
:107A10000BFB32463B46FCF7BFFC5DA3D3E90023DA
:107A2000FCF704FB32463B46FCF7B6FC5AA3D3E90D
:107A30000023FCF7F9FA32463B46FCF7ADFC58A3AD
:107A4000D3E90023FCF7F2FA32463B46FCF7A4FCEC
:107A500002460B4620462946FCF7E6FA06460F4644
:107A600032463B4620462946FCF796FC02460B462A
:107A70003046394616461F4600224FF08043FCF739
:107A8000D3FA02460B4630463946FCF7AFFD424674
:107A900006460F464B4620462946FCF77DFC4246EB
:107AA0004B46FCF7C3FA02460B4630463946FCF714
:107AB000BBFA22462B46FCF7B7FA02460B460020DB
:107AC0004149FCF7B1FA029A0B461344B3F5801F03
:107AD000C0F24381194653EC182BFCF75DFC41ECD6
:107AE000100B2DE4BBF1000FFFF6A0AC9FED2E0BA9
:107AF00026E4DFF8DCC021F00043634540F3E78073
:107B0000324B0B4403430AD122462B46FCF78CFA36
:107B100032463B46FCF7C6FE00283FF4F3AE24A3F2
:107B2000D3E9002351EC180BFCF736FC20A3D3E972
:107B30000023FCF731FC41EC100B01E49FED1E7BB0
:107B4000B0EE478AF0EE678A86E6BBF1000FCDDA29
:107B500007F1004300EE106A00EE903AFFF7F0BB29
:107B6000FE822B654715973C00000000432EE63F40
:107B7000EF39FAFE422EE63F396CA80C615C20BE5C
:107B8000D0A4BE726937663EF16BD2C541BDBB3E23
:107B90002CDE25AF6A56113F93BDBE166CC1663F01
:107BA0003E5555555555C53F0000000000000000EA
:107BB00059F3F8C21F6EA501000000000000F03F5D
:107BC000FFFF8F40FFFF0F000000F03F00346F3FCA
:107BD000FFCB9040984585DB7D4B98453FF722AC25
:107BE00051EC100B7A4B0022FCF71EFA68A3D3E984
:107BF000002304460D46FCF7CFFB67A3D3E900231F
:107C000082468B4620462946FCF7C6FB714B41EC69
:107C1000180B002220462946FCF7BEFB02460B4605
:107C20005FA1D1E90001FCF7FFF922462B46FCF7E2
:107C3000B3FB02460B4600206749FCF7F5F92246E4
:107C4000804689462B4620462946FCF7A5FB02467E
:107C50000B4640464946FCF79FFB53A3D3E900235C
:107C6000FCF79AFB02460B4651EC180BFCF7DCF9CB
:107C70008046894642464B4650465946FCF7D6F95F
:107C8000002052465B4604460D4691E522462B46AF
:107C900020462946FCF780FB41EC100BFFF750BB58
:107CA0004B49002022462B46FCF7A0FC41EC100B70
:107CB000FFF746BB002B44D1C1F114014AFA01F091
:107CC00000FA01F151455AD00093FFF717BB424A21
:107CD00093425BDCDDE900120291009146E634A399
:107CE000D3E9002351EC180BFCF756FB30A3D3E982
:107CF0000023FCF751FB41EC100BFFF721BB009B6D
:107D0000012B7FF41DAB10EE901A10EE102A01F13A
:107D1000004343EC102BFFF713BB9FED277BB0EE26
:107D200047CAF0EE67CA9FED267BB0EE47DAF0EE69
:107D300067DA9FED257B4FF4802553EC172BFFF777
:107D4000EBBB45EC104B009200F014F9009A002AAE
:107D50007FF492AB0092FFF726BB41EC100B00982A
:107D600000F0C2F951EC100BB5E600F00100C0F1D3
:107D700002010091002B3FF4C1AAFFF70DBB00F0F8
:107D80000100C0F102030093FFF7B8BA1B15BBE571
:107D9000000000604715F73F44DF5DF80BAE543E2E
:107DA000555555555555D53FFE822B654715F73F1F
:107DB0009C7500883CE4377E0000004003B8E23F39
:107DC00006D0CF43EBFD4C3E000000000000F83F22
:107DD0000000F03F0000D03F0000E03F2DE9F041FF
:107DE000634A55EC104BAA4300F09F80002D10EE23
:107DF00010CA2B4654DD291563D0C3F31303A1F237
:107E0000FF37C90743F4801304D45B0003EBDC7332
:107E10004FEA4C0C4FEADC72002602EB43037F1062
:107E20004FEA4C0C4FF0160E34464FF40012A118D6
:107E3000994202DC5B1A8C1816445B00BEF1010EFD
:107E400003EBDC734FEA52024FEA4C0CEFD175465C
:107E500020204FF000420AE044D04FEADC710138A4
:107E600001EB43034FEA4C0C4FEA520243D0A342CA
:107E700002EB0E01F0DD002901EB020E0ADBA04649
:107E80001B1B614588BF03F1FF33ACEB010C1544AC
:107E90004446E2E7BEF1000FF1DB04F10108EFE731
:107EA00025F00042224338D0002D4ED129464FEA1A
:107EB000DC22153913464FEA4C5C002AF7D0D60273
:107EC00050D400205B00DD02044600F10100F9D52A
:107ED0001A4663460CFA00FCC0F12000C340091B9F
:107EE00013438AE76145B8D8002901EB020ED1DBC4
:107EF00098460023C9E753EA0C0310D168087110B3
:107F0000F30701F17F5101F5001148BF40F0004037
:107F100001EB0753024643EC102BBDE8F0816A1CCD
:107F200016BF681C01364008E9E710EE102A10EE73
:107F3000100A2B462946FCF72FFA22462B46FCF75F
:107F400075F841EC100BBDE8F08110EE102A2046C8
:107F50002946FCF769F802460B46FCF747FB41EC63
:107F6000100BDAE7634620204FF0FF34B6E700BF7E
:107F70000000F07F51EC100B10EE102A21F00043AE
:107F800043EC102B704700BF82B08DED000B0198C1
:107F900040F0004000F58010C00F02B0704700BFF5
:107FA0009FED010B704700BF000000000000F87F4C
:107FB000F0B553EC102BC3F30A5CACF2FF3113297C
:107FC00010EE100A83B01C464FEAD37E3ADC00293B
:107FD00030DB424D45FA01FC03EA0C0515432DD078
:107FE00003EA5C0318434FEA5C0C0CD024EA0C0C47
:107FF0004FF48024132944FA01F10CBF4FF00040E4
:1080000000204CEA0104364901EBCE0E2346DEE99E
:108010000045024629462046FCF708F8CDE9000154
:10802000DDE9000122462B46FBF7FEFF41EC100B79
:1080300003B0F0BD23F00041114324D143EC102BD9
:1080400003B0F0BD332908DDB1F5806FF6D11946D4
:10805000FBF7ECFF41EC100BF2E7ACF2134C4FF0E6
:10806000FF3121FA0CF10A42E8D010EA51024FEA3E
:108070005103C8D020EA03034FF0804040FA0CFCC3
:1080800043EA0C00BFE7C3F313031843144A434207
:10809000034302EBCE0E1B0B620C03F400235204CD
:1080A00043EA02073B46DEE9006710EE102A30463D
:1080B0003946FBF7BBFFCDE9000132463B46DDE91F
:1080C0000001FBF7B1FF04F0004421F0004102463B
:1080D00041EA040343EC102B03B0F0BDFFFF0F0097
:1080E000F8850B000000000038B553EC102BC3F3EB
:1080F0000A5104469C4689BB10EE101A23F0004C2E
:108100005CEA010129D0194600223D4B3D4D10EE9D
:10811000100AFCF741F9AC4202460B4616DB8C46CE
:10812000C1F30A513639214440F2FE70814221DC0C
:10813000002947DC11F1350F34DA4CF250318C4212
:1081400018DC002B26A1D1E9000144DB24A3D3E9EC
:108150000023FCF721F941EC100B38BD40F2FF7011
:108160008142E0D110EE100A1946FBF75FFF41ECA7
:10817000100B38BD002B1CA1D1E9000107DB1AA3AD
:10818000D3E90023FCF708F941EC100B38BD18A126
:10819000D1E9000114A3D3E90023FCF7FDF841EC79
:1081A000100BF3E72CF0FF4C2CF4E00C36314CEACA
:1081B0000153104619460022134BFCF7EDF841EC31
:1081C000100B38BD2CF0FF4C2CF4E00C4CEA0153A2
:1081D00043EC102B38BD08A1D1E90001B6E700BF80
:1081E00059F3F8C21F6EA5019C7500883CE4377EE8
:1081F0009C7500883CE437FE59F3F8C21F6EA581D8
:1082000000005043B03CFFFF0000903C00230146BB
:108210001A46184600F062B80A44914200F1FF3352
:1082200000D1704710B511F8014B03F8014F91428E
:10823000F9D110BD02440346934200D1704703F8C0
:10824000011BF9E738B5104B1D68AB6B0446B3B999
:108250001820FDF741FE0246A86320B90B4B0C48DD
:108260004221FDF769FE0B490B4BC0E900130B4B94
:1082700083600B23838100210120C2E90401AB6BE1
:1082800000221C615A6138BDF8E5032008860B0006
:108290001F860B000E33CDAB34126DE6ECDE05000D
:1082A000024B0146186800F003B800BFF8E5032050
:1082B00037B5044608460D46FCF736FE421C11460B
:1082C00020460192FDF728FE044618B1019A29467E
:1082D000FFF7A2FF204603B030BD00002DE9F843B0
:1082E000DFF8B8800646D8F800001F460D469146D4
:1082F00000F056F8254B1C6834B9254C1C60254B02
:1083000013B11B68C4F8883063681F2B07DDD8F8E9
:10831000000000F047F84FF0FF30BDE8F8834EB39F
:10832000D4F8880088B91C4B23B9D8F8000000F0B5
:1083300038F8F0E74FF48470FDF7CEFD0028F4D054
:108340000023C0E94033C4F88800636840F82390F4
:1083500001229A4000EB8301D0F800311343C0F8AA
:108360000031022EC1F8807002BFD0F804311343EF
:10837000C0F804316368D8F800005A1C0233626008
:1083800044F8235000F00EF80020C6E7E8E7032089
:108390005CE7032000000000D95E0B005CE60320D0
:1083A0007047704770470000394F0B00754F0B0046
:1083B0009D4F0B00A14F0B000000000074656D7015
:1083C0000068756D6964697479007072657373759E
:1083D000726500616C7469747564650057656174D9
:1083E0006865722053746174696F6E204F6E6C699A
:1083F0006E65203A290074657374696E6700646560
:108400006661756C7420004D5342004C5342003C31
:1084100053504953657474696E677320646566616F
:10842000756C743E003C53504953657474696E67B3
:10843000732025732575202573204D4F44452575E0
:108440003E000000000000000000000045510B004D
:1084500019510B001B510B00000000000000000030
:10846000CD5F0B00D35F0B0011600B00E15F0B00D1
:10847000CF5F0B0000000000000000005B650B00F8
:1084800051650B0047650B003D650B0031650B0026
:1084900025650B00C9670B00D1670B0019650B0040
:1084A00011650B0007650B00FD640B0001680B00F4
:1084B000000000000000000079650B00C3650B00A0
:1084C0009B650B007B650B00A3650B00AB650B0088
:1084D000B3650B00BB650B0000000000000000004E
:1084E00097660B0087660B0089660B006170700051
:1084F000000000000000000089670B0093670B007C
:108500009D670B00A7670B00B1670B00BD670B00F1
:10851000C9670B00D1670B00D9670B00E5670B003B
:10852000ED670B00F7670B0001680B0000081018DF
:108530002028303825592D256D2D25645425483A9D
:10854000254D3A2553257A0061736374696D650082
:108550000000000000000000A96B0B00156C0B0070
:10856000ED6B0B00ED680B00BD6B0B00D96B0B00C6
:10857000CB6B0B00E76B0B00AB6B0B00AF6B0B0017
:108580000000000000000000536C0B00BB6C0B00EF
:10859000916C0B00ED680B00836C0B00556C0B00AD
:1085A000656C0B00B56C0B00756C0B004D6C0B0013
:1085B0000000000000000000AB6D0B00A16D0B007F
:1085C000976D0B004D6D0B008B6D0B007F6D0B00DD
:1085D000C9670B00D1670B00736D0B006B6D0B004F
:1085E000616D0B00576D0B0001680B00000000006F
:1085F0000000000000000000000000000000304308
:1086000000000000000030C35245454E54206D610B
:108610006C6C6F6320737563636565646564002FBC
:10862000746D702F6A656E6B696E732D4743432DB1
:1086300031302D706970656C696E652D34385F322C
:10864000303230313132345F3136303631383036D5
:1086500033392F7372632F6E65776C69622F6E6585
:10866000776C69622F6C6962632F7374646C6962E2
:108670002F72616E642E630005510B00BD5F0B000D
:1086800065650B0079670B00D9680B00016A0B0068
:0C869000716B0B00956B0B00B56D0B00BF
:08869C00B8C5FF7F01000000DA
:1086A400040000001400000003000000474E5500C1
:1086B400199383A63D7D5207FAAE46463A2725CF45
:0486C40097110C2BD3
:1086C80048850B00FF000000FCE5032000000000C7
:1086D8000000000000000000000000000000000092
:1086E8000000000000000000000000000000000082
:1086F8000000000000000000000000000000000072
:108708000000000000000000000000000000000061
:108718000000000000000000000000000000000051
:10872800000000000000000000000000ECE703204B
:04873800000000003D
:1087420000000102030405060708090A0B0C0D0EBE
:108752000F101112131415161718191A1B1C1D1EAF
:048762001F202800AC
:0487660078563412FB
:04000003B0004020E9
:00000001FF
